{
  "address": "0xdfE51561adacdE663fBA63Fbf952A3996F81d1DA",
  "abi": [
    {
      "inputs": [
        {
          "internalType": "address",
          "name": "_paymentCoin",
          "type": "address"
        }
      ],
      "stateMutability": "nonpayable",
      "type": "constructor"
    },
    {
      "inputs": [],
      "name": "NoResourcesAvailableForCPUServers",
      "type": "error"
    },
    {
      "inputs": [],
      "name": "OnlyGorTServersAllowed",
      "type": "error"
    },
    {
      "anonymous": false,
      "inputs": [
        {
          "indexed": true,
          "internalType": "address",
          "name": "owner",
          "type": "address"
        },
        {
          "indexed": true,
          "internalType": "address",
          "name": "approved",
          "type": "address"
        },
        {
          "indexed": true,
          "internalType": "uint256",
          "name": "tokenId",
          "type": "uint256"
        }
      ],
      "name": "Approval",
      "type": "event"
    },
    {
      "anonymous": false,
      "inputs": [
        {
          "indexed": true,
          "internalType": "address",
          "name": "owner",
          "type": "address"
        },
        {
          "indexed": true,
          "internalType": "address",
          "name": "operator",
          "type": "address"
        },
        {
          "indexed": false,
          "internalType": "bool",
          "name": "approved",
          "type": "bool"
        }
      ],
      "name": "ApprovalForAll",
      "type": "event"
    },
    {
      "anonymous": false,
      "inputs": [
        {
          "indexed": false,
          "internalType": "uint256",
          "name": "_fromTokenId",
          "type": "uint256"
        },
        {
          "indexed": false,
          "internalType": "uint256",
          "name": "_toTokenId",
          "type": "uint256"
        }
      ],
      "name": "BatchMetadataUpdate",
      "type": "event"
    },
    {
      "anonymous": false,
      "inputs": [
        {
          "indexed": false,
          "internalType": "uint256",
          "name": "_tokenId",
          "type": "uint256"
        }
      ],
      "name": "MetadataUpdate",
      "type": "event"
    },
    {
      "anonymous": false,
      "inputs": [
        {
          "indexed": true,
          "internalType": "address",
          "name": "previousOwner",
          "type": "address"
        },
        {
          "indexed": true,
          "internalType": "address",
          "name": "newOwner",
          "type": "address"
        }
      ],
      "name": "OwnershipTransferred",
      "type": "event"
    },
    {
      "anonymous": false,
      "inputs": [
        {
          "indexed": false,
          "internalType": "uint256",
          "name": "tokenId",
          "type": "uint256"
        }
      ],
      "name": "Rent",
      "type": "event"
    },
    {
      "anonymous": false,
      "inputs": [
        {
          "indexed": true,
          "internalType": "address",
          "name": "from",
          "type": "address"
        },
        {
          "indexed": true,
          "internalType": "address",
          "name": "to",
          "type": "address"
        },
        {
          "indexed": true,
          "internalType": "uint256",
          "name": "tokenId",
          "type": "uint256"
        }
      ],
      "name": "Transfer",
      "type": "event"
    },
    {
      "anonymous": false,
      "inputs": [
        {
          "indexed": true,
          "internalType": "uint256",
          "name": "tokenId",
          "type": "uint256"
        },
        {
          "indexed": true,
          "internalType": "address",
          "name": "user",
          "type": "address"
        },
        {
          "indexed": false,
          "internalType": "uint64",
          "name": "expires",
          "type": "uint64"
        }
      ],
      "name": "UpdateUser",
      "type": "event"
    },
    {
      "inputs": [
        {
          "internalType": "address",
          "name": "to",
          "type": "address"
        },
        {
          "internalType": "uint256",
          "name": "tokenId",
          "type": "uint256"
        }
      ],
      "name": "approve",
      "outputs": [],
      "stateMutability": "nonpayable",
      "type": "function"
    },
    {
      "inputs": [
        {
          "internalType": "address",
          "name": "owner",
          "type": "address"
        }
      ],
      "name": "balanceOf",
      "outputs": [
        {
          "internalType": "uint256",
          "name": "",
          "type": "uint256"
        }
      ],
      "stateMutability": "view",
      "type": "function"
    },
    {
      "inputs": [
        {
          "internalType": "address",
          "name": "_devAddress",
          "type": "address"
        }
      ],
      "name": "changeDevAddress",
      "outputs": [],
      "stateMutability": "nonpayable",
      "type": "function"
    },
    {
      "inputs": [],
      "name": "cleanUpOldRentals",
      "outputs": [],
      "stateMutability": "nonpayable",
      "type": "function"
    },
    {
      "inputs": [
        {
          "internalType": "uint256",
          "name": "tokenId",
          "type": "uint256"
        },
        {
          "internalType": "uint256",
          "name": "amount",
          "type": "uint256"
        }
      ],
      "name": "extendRental",
      "outputs": [],
      "stateMutability": "nonpayable",
      "type": "function"
    },
    {
      "inputs": [
        {
          "internalType": "uint256",
          "name": "tokenId",
          "type": "uint256"
        }
      ],
      "name": "getApproved",
      "outputs": [
        {
          "internalType": "address",
          "name": "",
          "type": "address"
        }
      ],
      "stateMutability": "view",
      "type": "function"
    },
    {
      "inputs": [
        {
          "internalType": "address",
          "name": "owner",
          "type": "address"
        },
        {
          "internalType": "address",
          "name": "operator",
          "type": "address"
        }
      ],
      "name": "isApprovedForAll",
      "outputs": [
        {
          "internalType": "bool",
          "name": "",
          "type": "bool"
        }
      ],
      "stateMutability": "view",
      "type": "function"
    },
    {
      "inputs": [
        {
          "internalType": "uint8",
          "name": "",
          "type": "uint8"
        }
      ],
      "name": "limits",
      "outputs": [
        {
          "internalType": "uint32",
          "name": "g",
          "type": "uint32"
        },
        {
          "internalType": "uint32",
          "name": "t",
          "type": "uint32"
        }
      ],
      "stateMutability": "view",
      "type": "function"
    },
    {
      "inputs": [],
      "name": "maxRentalTime",
      "outputs": [
        {
          "internalType": "uint256",
          "name": "",
          "type": "uint256"
        }
      ],
      "stateMutability": "view",
      "type": "function"
    },
    {
      "inputs": [],
      "name": "minRentalTime",
      "outputs": [
        {
          "internalType": "uint256",
          "name": "",
          "type": "uint256"
        }
      ],
      "stateMutability": "view",
      "type": "function"
    },
    {
      "inputs": [],
      "name": "name",
      "outputs": [
        {
          "internalType": "string",
          "name": "",
          "type": "string"
        }
      ],
      "stateMutability": "view",
      "type": "function"
    },
    {
      "inputs": [],
      "name": "owner",
      "outputs": [
        {
          "internalType": "address",
          "name": "",
          "type": "address"
        }
      ],
      "stateMutability": "view",
      "type": "function"
    },
    {
      "inputs": [
        {
          "internalType": "uint256",
          "name": "tokenId",
          "type": "uint256"
        }
      ],
      "name": "ownerOf",
      "outputs": [
        {
          "internalType": "address",
          "name": "",
          "type": "address"
        }
      ],
      "stateMutability": "view",
      "type": "function"
    },
    {
      "inputs": [
        {
          "internalType": "uint256",
          "name": "tokenId",
          "type": "uint256"
        }
      ],
      "name": "provideRefund",
      "outputs": [],
      "stateMutability": "nonpayable",
      "type": "function"
    },
    {
      "inputs": [
        {
          "internalType": "bytes32",
          "name": "id",
          "type": "bytes32"
        }
      ],
      "name": "removeTemplate",
      "outputs": [],
      "stateMutability": "nonpayable",
      "type": "function"
    },
    {
      "inputs": [],
      "name": "renounceOwnership",
      "outputs": [],
      "stateMutability": "view",
      "type": "function"
    },
    {
      "inputs": [
        {
          "internalType": "string",
          "name": "metadata",
          "type": "string"
        },
        {
          "internalType": "bytes32",
          "name": "templateId",
          "type": "bytes32"
        },
        {
          "internalType": "uint8",
          "name": "region",
          "type": "uint8"
        },
        {
          "internalType": "uint256",
          "name": "amount",
          "type": "uint256"
        }
      ],
      "name": "rent",
      "outputs": [],
      "stateMutability": "nonpayable",
      "type": "function"
    },
    {
      "inputs": [
        {
          "internalType": "address",
          "name": "from",
          "type": "address"
        },
        {
          "internalType": "address",
          "name": "to",
          "type": "address"
        },
        {
          "internalType": "uint256",
          "name": "tokenId",
          "type": "uint256"
        }
      ],
      "name": "safeTransferFrom",
      "outputs": [],
      "stateMutability": "nonpayable",
      "type": "function"
    },
    {
      "inputs": [
        {
          "internalType": "address",
          "name": "from",
          "type": "address"
        },
        {
          "internalType": "address",
          "name": "to",
          "type": "address"
        },
        {
          "internalType": "uint256",
          "name": "tokenId",
          "type": "uint256"
        },
        {
          "internalType": "bytes",
          "name": "data",
          "type": "bytes"
        }
      ],
      "name": "safeTransferFrom",
      "outputs": [],
      "stateMutability": "nonpayable",
      "type": "function"
    },
    {
      "inputs": [
        {
          "internalType": "bytes32",
          "name": "",
          "type": "bytes32"
        }
      ],
      "name": "serverConfigs",
      "outputs": [
        {
          "internalType": "uint8",
          "name": "",
          "type": "uint8"
        }
      ],
      "stateMutability": "view",
      "type": "function"
    },
    {
      "inputs": [
        {
          "internalType": "address",
          "name": "operator",
          "type": "address"
        },
        {
          "internalType": "bool",
          "name": "approved",
          "type": "bool"
        }
      ],
      "name": "setApprovalForAll",
      "outputs": [],
      "stateMutability": "nonpayable",
      "type": "function"
    },
    {
      "inputs": [
        {
          "internalType": "uint8",
          "name": "region",
          "type": "uint8"
        },
        {
          "internalType": "uint32",
          "name": "t",
          "type": "uint32"
        },
        {
          "internalType": "uint32",
          "name": "g",
          "type": "uint32"
        }
      ],
      "name": "setLimits",
      "outputs": [],
      "stateMutability": "nonpayable",
      "type": "function"
    },
    {
      "inputs": [
        {
          "internalType": "uint256",
          "name": "time",
          "type": "uint256"
        }
      ],
      "name": "setMaxRentalTime",
      "outputs": [],
      "stateMutability": "nonpayable",
      "type": "function"
    },
    {
      "inputs": [
        {
          "internalType": "uint256",
          "name": "time",
          "type": "uint256"
        }
      ],
      "name": "setMinRentalTime",
      "outputs": [],
      "stateMutability": "nonpayable",
      "type": "function"
    },
    {
      "inputs": [
        {
          "internalType": "bytes32",
          "name": "id",
          "type": "bytes32"
        },
        {
          "internalType": "uint8",
          "name": "cpus",
          "type": "uint8"
        }
      ],
      "name": "setServer",
      "outputs": [],
      "stateMutability": "nonpayable",
      "type": "function"
    },
    {
      "inputs": [
        {
          "internalType": "bytes32",
          "name": "id",
          "type": "bytes32"
        },
        {
          "internalType": "bytes32",
          "name": "serverId",
          "type": "bytes32"
        },
        {
          "internalType": "uint256",
          "name": "pricePerHour",
          "type": "uint256"
        }
      ],
      "name": "setTemplate",
      "outputs": [],
      "stateMutability": "nonpayable",
      "type": "function"
    },
    {
      "inputs": [
        {
          "internalType": "uint256",
          "name": "",
          "type": "uint256"
        },
        {
          "internalType": "address",
          "name": "",
          "type": "address"
        },
        {
          "internalType": "uint64",
          "name": "",
          "type": "uint64"
        }
      ],
      "name": "setUser",
      "outputs": [],
      "stateMutability": "pure",
      "type": "function"
    },
    {
      "inputs": [
        {
          "internalType": "uint256",
          "name": "tokenId",
          "type": "uint256"
        }
      ],
      "name": "stopRental",
      "outputs": [],
      "stateMutability": "nonpayable",
      "type": "function"
    },
    {
      "inputs": [
        {
          "internalType": "bytes4",
          "name": "interfaceId",
          "type": "bytes4"
        }
      ],
      "name": "supportsInterface",
      "outputs": [
        {
          "internalType": "bool",
          "name": "",
          "type": "bool"
        }
      ],
      "stateMutability": "view",
      "type": "function"
    },
    {
      "inputs": [],
      "name": "symbol",
      "outputs": [
        {
          "internalType": "string",
          "name": "",
          "type": "string"
        }
      ],
      "stateMutability": "view",
      "type": "function"
    },
    {
      "inputs": [
        {
          "internalType": "bytes32",
          "name": "",
          "type": "bytes32"
        }
      ],
      "name": "templateInfo",
      "outputs": [
        {
          "internalType": "bytes32",
          "name": "serverId",
          "type": "bytes32"
        },
        {
          "internalType": "uint256",
          "name": "pricePerHour",
          "type": "uint256"
        }
      ],
      "stateMutability": "view",
      "type": "function"
    },
    {
      "inputs": [
        {
          "internalType": "uint256",
          "name": "index",
          "type": "uint256"
        }
      ],
      "name": "tokenByIndex",
      "outputs": [
        {
          "internalType": "uint256",
          "name": "",
          "type": "uint256"
        }
      ],
      "stateMutability": "view",
      "type": "function"
    },
    {
      "inputs": [
        {
          "internalType": "address",
          "name": "owner",
          "type": "address"
        },
        {
          "internalType": "uint256",
          "name": "index",
          "type": "uint256"
        }
      ],
      "name": "tokenOfOwnerByIndex",
      "outputs": [
        {
          "internalType": "uint256",
          "name": "",
          "type": "uint256"
        }
      ],
      "stateMutability": "view",
      "type": "function"
    },
    {
      "inputs": [
        {
          "internalType": "uint256",
          "name": "tokenId",
          "type": "uint256"
        }
      ],
      "name": "tokenURI",
      "outputs": [
        {
          "internalType": "string",
          "name": "",
          "type": "string"
        }
      ],
      "stateMutability": "view",
      "type": "function"
    },
    {
      "inputs": [],
      "name": "totalSupply",
      "outputs": [
        {
          "internalType": "uint256",
          "name": "",
          "type": "uint256"
        }
      ],
      "stateMutability": "view",
      "type": "function"
    },
    {
      "inputs": [
        {
          "internalType": "address",
          "name": "from",
          "type": "address"
        },
        {
          "internalType": "address",
          "name": "to",
          "type": "address"
        },
        {
          "internalType": "uint256",
          "name": "tokenId",
          "type": "uint256"
        }
      ],
      "name": "transferFrom",
      "outputs": [],
      "stateMutability": "nonpayable",
      "type": "function"
    },
    {
      "inputs": [
        {
          "internalType": "address",
          "name": "newOwner",
          "type": "address"
        }
      ],
      "name": "transferOwnership",
      "outputs": [],
      "stateMutability": "nonpayable",
      "type": "function"
    },
    {
      "inputs": [
        {
          "internalType": "uint8",
          "name": "",
          "type": "uint8"
        }
      ],
      "name": "usage",
      "outputs": [
        {
          "internalType": "uint32",
          "name": "g",
          "type": "uint32"
        },
        {
          "internalType": "uint32",
          "name": "t",
          "type": "uint32"
        }
      ],
      "stateMutability": "view",
      "type": "function"
    },
    {
      "inputs": [
        {
          "internalType": "uint256",
          "name": "tokenId",
          "type": "uint256"
        }
      ],
      "name": "userExpires",
      "outputs": [
        {
          "internalType": "uint256",
          "name": "",
          "type": "uint256"
        }
      ],
      "stateMutability": "view",
      "type": "function"
    },
    {
      "inputs": [
        {
          "internalType": "uint256",
          "name": "tokenId",
          "type": "uint256"
        }
      ],
      "name": "userInfo",
      "outputs": [
        {
          "components": [
            {
              "internalType": "address",
              "name": "user",
              "type": "address"
            },
            {
              "internalType": "uint64",
              "name": "expires",
              "type": "uint64"
            },
            {
              "internalType": "bytes32",
              "name": "templateId",
              "type": "bytes32"
            },
            {
              "internalType": "uint8",
              "name": "region",
              "type": "uint8"
            },
            {
              "internalType": "uint256",
              "name": "payment",
              "type": "uint256"
            }
          ],
          "internalType": "struct CloudX.UserInfo",
          "name": "",
          "type": "tuple"
        },
        {
          "internalType": "bool",
          "name": "",
          "type": "bool"
        }
      ],
      "stateMutability": "view",
      "type": "function"
    },
    {
      "inputs": [
        {
          "internalType": "uint256",
          "name": "tokenId",
          "type": "uint256"
        }
      ],
      "name": "userOf",
      "outputs": [
        {
          "internalType": "address",
          "name": "",
          "type": "address"
        }
      ],
      "stateMutability": "view",
      "type": "function"
    }
  ],
  "transactionHash": "0x8bb1707c11b2d2594133af0c86d62ec30e72e94e0432e7b242e665697a6bd016",
  "args": [
    "0xb40E51f657EFa934D43A05cd4cC9f0a11faA05d0"
  ],
  "numDeployments": 3,
  "solcInputHash": "b41c24f9dd13674e2647e0ba58f11aba",
  "bytecode": "0x60806040526001600c55610708600f5562278d006010553480156200002357600080fd5b506040516200351f3803806200351f833981016040819052620000469162000135565b604080518082018252600680825265086d8deeac8b60d31b60208084018290528451808601909552918452908301529060006200008483826200020c565b5060016200009382826200020c565b505050620000b0620000aa620000df60201b60201c565b620000e3565b600d80546001600160a01b039092166001600160a01b0319928316179055600e805490911633179055620002d8565b3390565b600b80546001600160a01b038381166001600160a01b0319831681179093556040519116919082907f8be0079c531659141344cd1fd0a4f28419497f9722a3daafe3b4186f6b6457e090600090a35050565b6000602082840312156200014857600080fd5b81516001600160a01b03811681146200016057600080fd5b9392505050565b634e487b7160e01b600052604160045260246000fd5b600181811c908216806200019257607f821691505b602082108103620001b357634e487b7160e01b600052602260045260246000fd5b50919050565b601f8211156200020757600081815260208120601f850160051c81016020861015620001e25750805b601f850160051c820191505b818110156200020357828155600101620001ee565b5050505b505050565b81516001600160401b0381111562000228576200022862000167565b62000240816200023984546200017d565b84620001b9565b602080601f8311600181146200027857600084156200025f5750858301515b600019600386901b1c1916600185901b17855562000203565b600085815260208120601f198616915b82811015620002a95788860151825594840194600190910190840162000288565b5085821015620002c85787850151600019600388901b60f8161c191681555b5050505050600190811b01905550565b61323780620002e86000396000f3fe608060405234801561001057600080fd5b50600436106102535760003560e01c8063707c39521161014657806395d89b41116100c3578063c87b56dd11610087578063c87b56dd146105e5578063e030565e146105f8578063e4ca6eb21461060b578063e858e2031461061e578063e985e9c51461064f578063f2fde38b1461068b57600080fd5b806395d89b411461059157806399357fc314610599578063a22cb465146105ac578063b88d4fde146105bf578063c2f1f14a146105d257600080fd5b806380e93fe31161010a57806380e93fe3146105175780638da5cb5b1461052a5780638fc88c481461053b57806392b463901461056b578063951fec271461057e57600080fd5b8063707c3952146104ce57806370a08231146104e1578063715018a6146104f45780637dbed446146104fc5780637fc1e4671461050457600080fd5b806323b872dd116101d45780634f6ccce7116101985780634f6ccce71461042157806350afdec51461043457806351d70bc4146104475780636352211e146104b257806367c5d1b1146104c557600080fd5b806323b872dd146103cc5780632ce7a017146103df5780632f745c59146103e857806342842e0e146103fb57806347e09a0b1461040e57600080fd5b806314b321121161021b57806314b3211214610311578063156ecc3d1461035f578063166ce4341461037257806318160ddd1461038557806321bd44071461039757600080fd5b806301ffc9a71461025857806306fdde0314610280578063081812fc14610295578063095ea7b3146102c0578063107fd78c146102d5575b600080fd5b61026b6102663660046129bd565b61069e565b60405190151581526020015b60405180910390f35b6102886106d8565b6040516102779190612a2a565b6102a86102a3366004612a3d565b61076a565b6040516001600160a01b039091168152602001610277565b6102d36102ce366004612a6d565b610791565b005b6102fc6102e3366004612a3d565b6015602052600090815260409020805460019091015482565b60408051928352602083019190915201610277565b61034261031f366004612aa8565b60116020526000908152604090205463ffffffff80821691600160201b90041682565b6040805163ffffffff938416815292909116602083015201610277565b6102d361036d366004612a3d565b6108ab565b6102d3610380366004612a3d565b610a35565b6009545b604051908152602001610277565b6103ba6103a5366004612a3d565b60136020526000908152604090205460ff1681565b60405160ff9091168152602001610277565b6102d36103da366004612ac3565b610a42565b610389600f5481565b6103896103f6366004612a6d565b610a73565b6102d3610409366004612ac3565b610b09565b6102d361041c366004612a3d565b610b24565b61038961042f366004612a3d565b610b43565b6102d3610442366004612b13565b610bd6565b61045a610455366004612a3d565b610c33565b6040805183516001600160a01b031681526020808501516001600160401b031690820152838201519181019190915260608084015160ff169082015260809283015192810192909252151560a082015260c001610277565b6102a86104c0366004612a3d565b610cd5565b61038960105481565b6102d36104dc366004612a3d565b610d35565b6103896104ef366004612b56565b610d42565b6102d3610dc8565b6102d3610e18565b6102d3610512366004612b71565b610e85565b6102d3610525366004612b9d565b610f01565b600b546001600160a01b03166102a8565b610389610549366004612a3d565b600090815260146020526040902054600160a01b90046001600160401b031690565b6102d3610579366004612b56565b610f86565b6102d361058c366004612bc9565b610fb0565b61028861119f565b6102d36105a7366004612a3d565b6111ae565b6102d36105ba366004612bf9565b611258565b6102d36105cd366004612cbb565b611267565b6102a86105e0366004612a3d565b611299565b6102886105f3366004612a3d565b6112e8565b6102d3610606366004612d36565b6112f3565b6102d3610619366004612d82565b611330565b61034261062c366004612aa8565b60126020526000908152604090205463ffffffff80821691600160201b90041682565b61026b61065d366004612df4565b6001600160a01b03918216600090815260056020908152604080832093909416825291909152205460ff1690565b6102d3610699366004612b56565b6115bf565b60006001600160e01b03198216632b424ad760e21b14806106c357506106c382611635565b806106d257506106d282611656565b92915050565b6060600080546106e790612e1e565b80601f016020809104026020016040519081016040528092919081815260200182805461071390612e1e565b80156107605780601f1061073557610100808354040283529160200191610760565b820191906000526020600020905b81548152906001019060200180831161074357829003601f168201915b5050505050905090565b60006107758261167b565b506000908152600460205260409020546001600160a01b031690565b600061079c82610cd5565b9050806001600160a01b0316836001600160a01b03160361080e5760405162461bcd60e51b815260206004820152602160248201527f4552433732313a20617070726f76616c20746f2063757272656e74206f776e656044820152603960f91b60648201526084015b60405180910390fd5b336001600160a01b038216148061082a575061082a813361065d565b61089c5760405162461bcd60e51b815260206004820152603d60248201527f4552433732313a20617070726f76652063616c6c6572206973206e6f7420746f60448201527f6b656e206f776e6572206f7220617070726f76656420666f7220616c6c0000006064820152608401610805565b6108a683836116da565b505050565b336108b582611299565b6001600160a01b0316146109015760405162461bcd60e51b815260206004820152601360248201527231b0b63632b91034b9903737ba1037bbb732b960691b6044820152606401610805565b600081815260146020908152604080832060018082015485526015845282852083518085019094528054845201549282019290925281549192909161096490603c9061095e904290600160a01b90046001600160401b0316612e6e565b90611748565b90508015610a26576000610991610e1061098b85602001518561175b90919063ffffffff16565b90611767565b600d5460405163a9059cbb60e01b8152336004820152602481018390529192506001600160a01b031690819063a9059cbb906044016020604051808303816000875af11580156109e5573d6000803e3d6000fd5b505050506040513d601f19601f82011682018060405250810190610a099190612e81565b5081856003016000828254610a1e9190612e6e565b909155505050505b610a2f84611773565b50505050565b610a3d61177c565b601055565b610a4c33826117d8565b610a685760405162461bcd60e51b815260040161080590612e9e565b6108a6838383611857565b6000610a7e83610d42565b8210610ae05760405162461bcd60e51b815260206004820152602b60248201527f455243373231456e756d657261626c653a206f776e657220696e646578206f7560448201526a74206f6620626f756e647360a81b6064820152608401610805565b506001600160a01b03919091166000908152600760209081526040808320938352929052205490565b6108a683838360405180602001604052806000815250611267565b610b2c61177c565b600090815260156020526040812081815560010155565b6000610b4e60095490565b8210610bb15760405162461bcd60e51b815260206004820152602c60248201527f455243373231456e756d657261626c653a20676c6f62616c20696e646578206f60448201526b7574206f6620626f756e647360a01b6064820152608401610805565b60098281548110610bc457610bc4612eeb565b90600052602060002001549050919050565b610bde61177c565b60408051808201825263ffffffff9283168152928216602080850191825260ff9095166000908152601190955293209151825493518216600160201b0267ffffffffffffffff19909416911617919091179055565b6040805160a081018252600080825260208201819052918101829052606081018290526080810191909152600082815260146020526040812081610c7685611299565b6040805160a08101825284546001600160a01b038082168352600160a01b9091046001600160401b03166020830152600186015492820192909252600285015460ff166060820152600390940154608085015292969216149350915050565b6000818152600260205260408120546001600160a01b0316806106d25760405162461bcd60e51b8152602060048201526018602482015277115490cdcc8c4e881a5b9d985b1a59081d1bdad95b88125160421b6044820152606401610805565b610d3d61177c565b600f55565b60006001600160a01b038216610dac5760405162461bcd60e51b815260206004820152602960248201527f4552433732313a2061646472657373207a65726f206973206e6f7420612076616044820152683634b21037bbb732b960b91b6064820152608401610805565b506001600160a01b031660009081526003602052604090205490565b610dd061177c565b60405162461bcd60e51b815260206004820152601d60248201527f72656e6f756e63654f776e657273686970206e6f7420616c6c6f7765640000006044820152606401610805565b6000610e2360095490565b90505b8015610e82576000610e3c61042f600184612e6e565b60008181526014602052604090205490915042600160a01b9091046001600160401b03161015610e6f57610e6f81611773565b5080610e7a81612f01565b915050610e26565b50565b610e8d61177c565b8160001a60f81b6001600160f81b031916606760f81b1480610ec257508160001a60f81b6001600160f81b031916601d60fa1b145b610edf5760405163370bed2360e01b815260040160405180910390fd5b600091825260136020526040909120805460ff191660ff909216919091179055565b610f0961177c565b60008281526013602052604090205460ff16610f585760405162461bcd60e51b815260206004820152600e60248201526d14d95c9d995c939bdd119bdd5b9960921b6044820152606401610805565b6040805180820182529283526020808401928352600094855260159052909220905181559051600190910155565b610f8e61177c565b600e80546001600160a01b0319166001600160a01b0392909216919091179055565b33610fba83611299565b6001600160a01b0316146110065760405162461bcd60e51b815260206004820152601360248201527231b0b63632b91034b9903737ba1037bbb732b960691b6044820152606401610805565b6000828152601460209081526040808320600180820154855260158452828520835180850190945280548452015492820183905292909161104d9061098b86610e1061175b565b90506010544261105d9190612f18565b835461107a908390600160a01b90046001600160401b0316612f18565b106110b95760405162461bcd60e51b815260206004820152600f60248201526e6d61782072656e74616c2074696d6560881b6044820152606401610805565b600d546040516323b872dd60e01b8152336004820152306024820152604481018690526001600160a01b039091169081906323b872dd906064016020604051808303816000875af1158015611112573d6000803e3d6000fd5b505050506040513d601f19601f820116820180604052508101906111369190612e81565b508354611154908390600160a01b90046001600160401b0316612f18565b84546001600160401b0391909116600160a01b0267ffffffffffffffff60a01b19909116178455600384018054869190600090611192908490612f18565b9091555050505050505050565b6060600180546106e790612e1e565b6111b661177c565b60008181526014602052604090819020600d5481546003830154935163a9059cbb60e01b81526001600160a01b03918216600482015260248101949094529192911690819063a9059cbb906044016020604051808303816000875af1158015611223573d6000803e3d6000fd5b505050506040513d601f19601f820116820180604052508101906112479190612e81565b50600060038301556108a683611773565b6112633383836119c8565b5050565b61127133836117d8565b61128d5760405162461bcd60e51b815260040161080590612e9e565b610a2f84848484611a96565b60008181526014602052604081205442600160a01b9091046001600160401b0316106112db57506000908152601460205260409020546001600160a01b031690565b506000919050565b919050565b60606106d282611ac9565b60405162461bcd60e51b815260206004820152601260248201527131b0b73737ba1031b430b733b2903ab9b2b960711b6044820152606401610805565b611338610e18565b600083815260156020908152604091829020825180840190935280548352600101549082018190526113a15760405162461bcd60e51b81526020600482015260126024820152711d195b5c1b185d19481b9bdd08199bdd5b9960721b6044820152606401610805565b80516113ad9084611bd1565b60208101516000906113c59061098b85610e1061175b565b9050600f548110156114195760405162461bcd60e51b815260206004820152601b60248201527f6d696e696d756d2072656e74616c2074696d65206e6f74206d657400000000006044820152606401610805565b60105481111561145d5760405162461bcd60e51b815260206004820152600f60248201526e6d61782072656e74616c2074696d6560881b6044820152606401610805565b600d546040516323b872dd60e01b8152336004820152306024820152604481018590526001600160a01b039091169081906323b872dd906064016020604051808303816000875af11580156114b6573d6000803e3d6000fd5b505050506040513d601f19601f820116820180604052508101906114da9190612e81565b506114e733600c54611d7a565b6114f3600c5488611f13565b7f77ff0cff82a4cb1bcd7cbe55b594b3e2a5ec3867766f906dfbb4f21108f4c671600c5460405161152691815260200190565b60405180910390a1600c54600090815260146020526040902080546001600160a01b031916331781556115598342612f18565b815467ffffffffffffffff60a01b1916600160a01b6001600160401b0392909216919091021781556001810187905560028101805460ff191660ff881617905560038101859055600c80549060006115b083612f2b565b91905055505050505050505050565b6115c761177c565b6001600160a01b03811661162c5760405162461bcd60e51b815260206004820152602660248201527f4f776e61626c653a206e6577206f776e657220697320746865207a65726f206160448201526564647265737360d01b6064820152608401610805565b610e8281611fde565b60006001600160e01b0319821663780e9d6360e01b14806106d257506106d2825b60006001600160e01b03198216632483248360e11b14806106d257506106d282612030565b6000818152600260205260409020546001600160a01b0316610e825760405162461bcd60e51b8152602060048201526018602482015277115490cdcc8c4e881a5b9d985b1a59081d1bdad95b88125160421b6044820152606401610805565b600081815260046020526040902080546001600160a01b0319166001600160a01b038416908117909155819061170f82610cd5565b6001600160a01b03167f8c5be1e5ebec7d5bd14f71427d1e84f3dd0314c0f7b2291e5b200ac8c7c3b92560405160405180910390a45050565b60006117548284612e6e565b9392505050565b60006117548284612f44565b60006117548284612f5b565b610e8281612080565b600b546001600160a01b031633146117d65760405162461bcd60e51b815260206004820181905260248201527f4f776e61626c653a2063616c6c6572206973206e6f7420746865206f776e65726044820152606401610805565b565b6000806117e483610cd5565b9050806001600160a01b0316846001600160a01b0316148061182b57506001600160a01b0380821660009081526005602090815260408083209388168352929052205460ff165b8061184f5750836001600160a01b03166118448461076a565b6001600160a01b0316145b949350505050565b826001600160a01b031661186a82610cd5565b6001600160a01b0316146118905760405162461bcd60e51b815260040161080590612f7d565b6001600160a01b0382166118f25760405162461bcd60e51b8152602060048201526024808201527f4552433732313a207472616e7366657220746f20746865207a65726f206164646044820152637265737360e01b6064820152608401610805565b6118ff83838360016120c0565b826001600160a01b031661191282610cd5565b6001600160a01b0316146119385760405162461bcd60e51b815260040161080590612f7d565b600081815260046020908152604080832080546001600160a01b03199081169091556001600160a01b0387811680865260038552838620805460001901905590871680865283862080546001019055868652600290945282852080549092168417909155905184937fddf252ad1be2c89b69c2b068fc378daa952ba7f163c4a11628f55a4df523b3ef91a4505050565b816001600160a01b0316836001600160a01b031603611a295760405162461bcd60e51b815260206004820152601960248201527f4552433732313a20617070726f766520746f2063616c6c6572000000000000006044820152606401610805565b6001600160a01b03838116600081815260056020908152604080832094871680845294825291829020805460ff191686151590811790915591519182527f17307eab39ab6107e8899845ad3d59bd9653f200f220920489ca2b5937696c31910160405180910390a3505050565b611aa1848484611857565b611aad84848484612266565b610a2f5760405162461bcd60e51b815260040161080590612fc2565b6060611ad48261167b565b60008281526006602052604081208054611aed90612e1e565b80601f0160208091040260200160405190810160405280929190818152602001828054611b1990612e1e565b8015611b665780601f10611b3b57610100808354040283529160200191611b66565b820191906000526020600020905b815481529060010190602001808311611b4957829003601f168201915b505050505090506000611b8460408051602081019091526000815290565b90508051600003611b96575092915050565b815115611bc8578082604051602001611bb0929190613014565b60405160208183030381529060405292505050919050565b61184f84612367565b60ff8116600081815260116020908152604080832081518083018352905463ffffffff8082168352600160201b9091041681840152938352601290915281209084901a60f81b6001600160f81b031916606760f81b03611cc85780548251611c3f9163ffffffff1690613043565b60008581526013602052604090205463ffffffff9190911660ff9091161115611c7b57604051633dd2debf60e21b815260040160405180910390fd5b600084815260136020526040812054825460ff909116918391611ca590849063ffffffff16613067565b92506101000a81548163ffffffff021916908363ffffffff160217905550610a2f565b80546020830151611ce691600160201b900463ffffffff1690613043565b60008581526013602052604090205463ffffffff9190911660ff9091161115611d2257604051633dd2debf60e21b815260040160405180910390fd5b600084815260136020526040902054815460ff909116908290600490611d56908490600160201b900463ffffffff16613067565b92506101000a81548163ffffffff021916908363ffffffff16021790555050505050565b6001600160a01b038216611dd05760405162461bcd60e51b815260206004820181905260248201527f4552433732313a206d696e7420746f20746865207a65726f20616464726573736044820152606401610805565b6000818152600260205260409020546001600160a01b031615611e355760405162461bcd60e51b815260206004820152601c60248201527f4552433732313a20746f6b656e20616c7265616479206d696e746564000000006044820152606401610805565b611e436000838360016120c0565b6000818152600260205260409020546001600160a01b031615611ea85760405162461bcd60e51b815260206004820152601c60248201527f4552433732313a20746f6b656e20616c7265616479206d696e746564000000006044820152606401610805565b6001600160a01b038216600081815260036020908152604080832080546001019055848352600290915280822080546001600160a01b0319168417905551839291907fddf252ad1be2c89b69c2b068fc378daa952ba7f163c4a11628f55a4df523b3ef908290a45050565b6000828152600260205260409020546001600160a01b0316611f8e5760405162461bcd60e51b815260206004820152602e60248201527f45524337323155524953746f726167653a2055524920736574206f66206e6f6e60448201526d32bc34b9ba32b73a103a37b5b2b760911b6064820152608401610805565b6000828152600660205260409020611fa682826130d2565b506040518281527ff8e1a15aba9398e019f0b49df1a4fde98ee17ae345cb5f6b5e2c27f5033e8ce79060200160405180910390a15050565b600b80546001600160a01b038381166001600160a01b0319831681179093556040519116919082907f8be0079c531659141344cd1fd0a4f28419497f9722a3daafe3b4186f6b6457e090600090a35050565b60006001600160e01b031982166380ac58cd60e01b148061206157506001600160e01b03198216635b5e139f60e01b145b806106d257506301ffc9a760e01b6001600160e01b03198316146106d2565b612089816123da565b600081815260066020526040902080546120a290612e1e565b159050610e82576000818152600660205260408120610e8291612959565b6120cc8484848461247d565b6001600160a01b03841615610a2f576001600160a01b038316612237576000828152601460209081526040808320815160a08101835281546001600160a01b0381168252600160a01b90046001600160401b031681850152600180830154828501819052600284015460ff16606084019081526003909401546080840152865260158552948390208351808501909452805480855295015493830193909352519192909161217a91906125b1565b600d54600e54608084015160405163a9059cbb60e01b81526001600160a01b0392831660048201526024810191909152911690819063a9059cbb906044016020604051808303816000875af11580156121d7573d6000803e3d6000fd5b505050506040513d601f19601f820116820180604052508101906121fb9190612e81565b505050600083815260146020526040812080546001600160e01b03191681556001810182905560028101805460ff191690556003015550610a2f565b600082815260146020526040902080546001600160a01b0385166001600160a01b031990911617905550505050565b60006001600160a01b0384163b1561235c57604051630a85bd0160e11b81526001600160a01b0385169063150b7a02906122aa903390899088908890600401613191565b6020604051808303816000875af19250505080156122e5575060408051601f3d908101601f191682019092526122e2918101906131ce565b60015b612342573d808015612313576040519150601f19603f3d011682016040523d82523d6000602084013e612318565b606091505b50805160000361233a5760405162461bcd60e51b815260040161080590612fc2565b805181602001fd5b6001600160e01b031916630a85bd0160e11b14905061184f565b506001949350505050565b60606123728261167b565b600061238960408051602081019091526000815290565b905060008151116123a95760405180602001604052806000815250611754565b806123b38461265f565b6040516020016123c4929190613014565b6040516020818303038152906040529392505050565b60006123e582610cd5565b90506123f58160008460016120c0565b6123fe82610cd5565b600083815260046020908152604080832080546001600160a01b03199081169091556001600160a01b0385168085526003845282852080546000190190558785526002909352818420805490911690555192935084927fddf252ad1be2c89b69c2b068fc378daa952ba7f163c4a11628f55a4df523b3ef908390a45050565b60018111156124ec5760405162461bcd60e51b815260206004820152603560248201527f455243373231456e756d657261626c653a20636f6e7365637574697665207472604482015274185b9cd9995c9cc81b9bdd081cdd5c1c1bdc9d1959605a1b6064820152608401610805565b816001600160a01b0385166125485761254381600980546000838152600a60205260408120829055600182018355919091527f6e1540171b6c0c960b71a7020d9f60077f6af931a8bbf590da0223dacf75c7af0155565b61256b565b836001600160a01b0316856001600160a01b03161461256b5761256b85826126f1565b6001600160a01b038416612587576125828161278e565b6125aa565b846001600160a01b0316846001600160a01b0316146125aa576125aa848261283d565b5050505050565b60ff811660009081526012602052604081209083901a60f81b6001600160f81b031916606760f81b0361262b57600083815260136020526040812054825460ff90911691839161260890849063ffffffff16613043565b92506101000a81548163ffffffff021916908363ffffffff160217905550505050565b600083815260136020526040902054815460ff909116908290600490612608908490600160201b900463ffffffff16613043565b6060600061266c83612881565b60010190506000816001600160401b0381111561268b5761268b612c30565b6040519080825280601f01601f1916602001820160405280156126b5576020820181803683370190505b5090508181016020015b600019016f181899199a1a9b1b9c1cb0b131b232b360811b600a86061a8153600a85049450846126bf57509392505050565b600060016126fe84610d42565b6127089190612e6e565b60008381526008602052604090205490915080821461275b576001600160a01b03841660009081526007602090815260408083208584528252808320548484528184208190558352600890915290208190555b5060009182526008602090815260408084208490556001600160a01b039094168352600781528383209183525290812055565b6009546000906127a090600190612e6e565b6000838152600a6020526040812054600980549394509092849081106127c8576127c8612eeb565b9060005260206000200154905080600983815481106127e9576127e9612eeb565b6000918252602080832090910192909255828152600a90915260408082208490558582528120556009805480612821576128216131eb565b6001900381819060005260206000200160009055905550505050565b600061284883610d42565b6001600160a01b039093166000908152600760209081526040808320868452825280832085905593825260089052919091209190915550565b60008072184f03e93ff9f4daa797ed6e38ed64bf6a1f0160401b83106128c05772184f03e93ff9f4daa797ed6e38ed64bf6a1f0160401b830492506040015b6d04ee2d6d415b85acef810000000083106128ec576d04ee2d6d415b85acef8100000000830492506020015b662386f26fc10000831061290a57662386f26fc10000830492506010015b6305f5e1008310612922576305f5e100830492506008015b612710831061293657612710830492506004015b60648310612948576064830492506002015b600a83106106d25760010192915050565b50805461296590612e1e565b6000825580601f10612975575050565b601f016020900490600052602060002090810190610e8291905b808211156129a3576000815560010161298f565b5090565b6001600160e01b031981168114610e8257600080fd5b6000602082840312156129cf57600080fd5b8135611754816129a7565b60005b838110156129f55781810151838201526020016129dd565b50506000910152565b60008151808452612a168160208601602086016129da565b601f01601f19169290920160200192915050565b60208152600061175460208301846129fe565b600060208284031215612a4f57600080fd5b5035919050565b80356001600160a01b03811681146112e357600080fd5b60008060408385031215612a8057600080fd5b612a8983612a56565b946020939093013593505050565b803560ff811681146112e357600080fd5b600060208284031215612aba57600080fd5b61175482612a97565b600080600060608486031215612ad857600080fd5b612ae184612a56565b9250612aef60208501612a56565b9150604084013590509250925092565b803563ffffffff811681146112e357600080fd5b600080600060608486031215612b2857600080fd5b612b3184612a97565b9250612b3f60208501612aff565b9150612b4d60408501612aff565b90509250925092565b600060208284031215612b6857600080fd5b61175482612a56565b60008060408385031215612b8457600080fd5b82359150612b9460208401612a97565b90509250929050565b600080600060608486031215612bb257600080fd5b505081359360208301359350604090920135919050565b60008060408385031215612bdc57600080fd5b50508035926020909101359150565b8015158114610e8257600080fd5b60008060408385031215612c0c57600080fd5b612c1583612a56565b91506020830135612c2581612beb565b809150509250929050565b634e487b7160e01b600052604160045260246000fd5b60006001600160401b0380841115612c6057612c60612c30565b604051601f8501601f19908116603f01168101908282118183101715612c8857612c88612c30565b81604052809350858152868686011115612ca157600080fd5b858560208301376000602087830101525050509392505050565b60008060008060808587031215612cd157600080fd5b612cda85612a56565b9350612ce860208601612a56565b92506040850135915060608501356001600160401b03811115612d0a57600080fd5b8501601f81018713612d1b57600080fd5b612d2a87823560208401612c46565b91505092959194509250565b600080600060608486031215612d4b57600080fd5b83359250612d5b60208501612a56565b915060408401356001600160401b0381168114612d7757600080fd5b809150509250925092565b60008060008060808587031215612d9857600080fd5b84356001600160401b03811115612dae57600080fd5b8501601f81018713612dbf57600080fd5b612dce87823560208401612c46565b94505060208501359250612de460408601612a97565b9396929550929360600135925050565b60008060408385031215612e0757600080fd5b612e1083612a56565b9150612b9460208401612a56565b600181811c90821680612e3257607f821691505b602082108103612e5257634e487b7160e01b600052602260045260246000fd5b50919050565b634e487b7160e01b600052601160045260246000fd5b818103818111156106d2576106d2612e58565b600060208284031215612e9357600080fd5b815161175481612beb565b6020808252602d908201527f4552433732313a2063616c6c6572206973206e6f7420746f6b656e206f776e6560408201526c1c881bdc88185c1c1c9bdd9959609a1b606082015260800190565b634e487b7160e01b600052603260045260246000fd5b600081612f1057612f10612e58565b506000190190565b808201808211156106d2576106d2612e58565b600060018201612f3d57612f3d612e58565b5060010190565b80820281158282048414176106d2576106d2612e58565b600082612f7857634e487b7160e01b600052601260045260246000fd5b500490565b60208082526025908201527f4552433732313a207472616e736665722066726f6d20696e636f72726563742060408201526437bbb732b960d91b606082015260800190565b60208082526032908201527f4552433732313a207472616e7366657220746f206e6f6e20455243373231526560408201527131b2b4bb32b91034b6b83632b6b2b73a32b960711b606082015260800190565b600083516130268184602088016129da565b83519083019061303a8183602088016129da565b01949350505050565b63ffffffff82811682821603908082111561306057613060612e58565b5092915050565b63ffffffff81811683821601908082111561306057613060612e58565b601f8211156108a657600081815260208120601f850160051c810160208610156130ab5750805b601f850160051c820191505b818110156130ca578281556001016130b7565b505050505050565b81516001600160401b038111156130eb576130eb612c30565b6130ff816130f98454612e1e565b84613084565b602080601f831160018114613134576000841561311c5750858301515b600019600386901b1c1916600185901b1785556130ca565b600085815260208120601f198616915b8281101561316357888601518255948401946001909101908401613144565b50858210156131815787850151600019600388901b60f8161c191681555b5050505050600190811b01905550565b6001600160a01b03858116825284166020820152604081018390526080606082018190526000906131c4908301846129fe565b9695505050505050565b6000602082840312156131e057600080fd5b8151611754816129a7565b634e487b7160e01b600052603160045260246000fdfea264697066735822122037ebc5abc0391964a2c052387f105622eb01ab292ea8491d80de84146ffc791864736f6c63430008130033",
  "devdoc": {
    "events": {
      "Approval(address,address,uint256)": {
        "details": "Emitted when `owner` enables `approved` to manage the `tokenId` token."
      },
      "ApprovalForAll(address,address,bool)": {
        "details": "Emitted when `owner` enables or disables (`approved`) `operator` to manage all of its assets."
      },
      "BatchMetadataUpdate(uint256,uint256)": {
        "details": "This event emits when the metadata of a range of tokens is changed. So that the third-party platforms such as NFT market could timely update the images and related attributes of the NFTs."
      },
      "MetadataUpdate(uint256)": {
        "details": "This event emits when the metadata of a token is changed. So that the third-party platforms such as NFT market could timely update the images and related attributes of the NFT."
      },
      "Transfer(address,address,uint256)": {
        "details": "Emitted when `tokenId` token is transferred from `from` to `to`."
      }
    },
    "kind": "dev",
    "methods": {
      "approve(address,uint256)": {
        "details": "See {IERC721-approve}."
      },
      "balanceOf(address)": {
        "details": "See {IERC721-balanceOf}."
      },
      "getApproved(uint256)": {
        "details": "See {IERC721-getApproved}."
      },
      "isApprovedForAll(address,address)": {
        "details": "See {IERC721-isApprovedForAll}."
      },
      "name()": {
        "details": "See {IERC721Metadata-name}."
      },
      "owner()": {
        "details": "Returns the address of the current owner."
      },
      "ownerOf(uint256)": {
        "details": "See {IERC721-ownerOf}."
      },
      "renounceOwnership()": {
        "details": "Leaves the contract without owner. It will not be possible to call `onlyOwner` functions. Can only be called by the current owner. NOTE: Renouncing ownership will leave the contract without an owner, thereby disabling any functionality that is only available to the owner."
      },
      "safeTransferFrom(address,address,uint256)": {
        "details": "See {IERC721-safeTransferFrom}."
      },
      "safeTransferFrom(address,address,uint256,bytes)": {
        "details": "See {IERC721-safeTransferFrom}."
      },
      "setApprovalForAll(address,bool)": {
        "details": "See {IERC721-setApprovalForAll}."
      },
      "symbol()": {
        "details": "See {IERC721Metadata-symbol}."
      },
      "tokenByIndex(uint256)": {
        "details": "See {IERC721Enumerable-tokenByIndex}."
      },
      "tokenOfOwnerByIndex(address,uint256)": {
        "details": "See {IERC721Enumerable-tokenOfOwnerByIndex}."
      },
      "totalSupply()": {
        "details": "See {IERC721Enumerable-totalSupply}."
      },
      "transferFrom(address,address,uint256)": {
        "details": "See {IERC721-transferFrom}."
      },
      "transferOwnership(address)": {
        "details": "Transfers ownership of the contract to a new account (`newOwner`). Can only be called by the current owner."
      },
      "userExpires(uint256)": {
        "details": "The zero value indicates that there is no user",
        "params": {
          "tokenId": "The NFT to get the user expires for"
        },
        "returns": {
          "_0": "The user expires for this NFT"
        }
      },
      "userOf(uint256)": {
        "details": "The zero address indicates that there is no user or the user is expired",
        "params": {
          "tokenId": "The NFT to get the user address for"
        },
        "returns": {
          "_0": "The user address for this NFT"
        }
      }
    },
    "version": 1
  },
  "userdoc": {
    "events": {
      "UpdateUser(uint256,address,uint64)": {
        "notice": "Emitted when the `user` of an NFT or the `expires` of the `user` is changed The zero address for user indicates that there is no user address"
      }
    },
    "kind": "user",
    "methods": {
      "userExpires(uint256)": {
        "notice": "Get the user expires of an NFT"
      },
      "userOf(uint256)": {
        "notice": "Get the user address of an NFT"
      }
    },
    "version": 1
  },
  "storageLayout": {
    "storage": [
      {
        "astId": 244,
        "contract": "contracts/CloudX.sol:CloudX",
        "label": "_name",
        "offset": 0,
        "slot": "0",
        "type": "t_string_storage"
      },
      {
        "astId": 246,
        "contract": "contracts/CloudX.sol:CloudX",
        "label": "_symbol",
        "offset": 0,
        "slot": "1",
        "type": "t_string_storage"
      },
      {
        "astId": 250,
        "contract": "contracts/CloudX.sol:CloudX",
        "label": "_owners",
        "offset": 0,
        "slot": "2",
        "type": "t_mapping(t_uint256,t_address)"
      },
      {
        "astId": 254,
        "contract": "contracts/CloudX.sol:CloudX",
        "label": "_balances",
        "offset": 0,
        "slot": "3",
        "type": "t_mapping(t_address,t_uint256)"
      },
      {
        "astId": 258,
        "contract": "contracts/CloudX.sol:CloudX",
        "label": "_tokenApprovals",
        "offset": 0,
        "slot": "4",
        "type": "t_mapping(t_uint256,t_address)"
      },
      {
        "astId": 264,
        "contract": "contracts/CloudX.sol:CloudX",
        "label": "_operatorApprovals",
        "offset": 0,
        "slot": "5",
        "type": "t_mapping(t_address,t_mapping(t_address,t_bool))"
      },
      {
        "astId": 1649,
        "contract": "contracts/CloudX.sol:CloudX",
        "label": "_tokenURIs",
        "offset": 0,
        "slot": "6",
        "type": "t_mapping(t_uint256,t_string_storage)"
      },
      {
        "astId": 1294,
        "contract": "contracts/CloudX.sol:CloudX",
        "label": "_ownedTokens",
        "offset": 0,
        "slot": "7",
        "type": "t_mapping(t_address,t_mapping(t_uint256,t_uint256))"
      },
      {
        "astId": 1298,
        "contract": "contracts/CloudX.sol:CloudX",
        "label": "_ownedTokensIndex",
        "offset": 0,
        "slot": "8",
        "type": "t_mapping(t_uint256,t_uint256)"
      },
      {
        "astId": 1301,
        "contract": "contracts/CloudX.sol:CloudX",
        "label": "_allTokens",
        "offset": 0,
        "slot": "9",
        "type": "t_array(t_uint256)dyn_storage"
      },
      {
        "astId": 1305,
        "contract": "contracts/CloudX.sol:CloudX",
        "label": "_allTokensIndex",
        "offset": 0,
        "slot": "10",
        "type": "t_mapping(t_uint256,t_uint256)"
      },
      {
        "astId": 7,
        "contract": "contracts/CloudX.sol:CloudX",
        "label": "_owner",
        "offset": 0,
        "slot": "11",
        "type": "t_address"
      },
      {
        "astId": 3794,
        "contract": "contracts/CloudX.sol:CloudX",
        "label": "nftId",
        "offset": 0,
        "slot": "12",
        "type": "t_uint256"
      },
      {
        "astId": 3796,
        "contract": "contracts/CloudX.sol:CloudX",
        "label": "paymentCoin",
        "offset": 0,
        "slot": "13",
        "type": "t_address"
      },
      {
        "astId": 3798,
        "contract": "contracts/CloudX.sol:CloudX",
        "label": "devAddress",
        "offset": 0,
        "slot": "14",
        "type": "t_address"
      },
      {
        "astId": 3801,
        "contract": "contracts/CloudX.sol:CloudX",
        "label": "minRentalTime",
        "offset": 0,
        "slot": "15",
        "type": "t_uint256"
      },
      {
        "astId": 3804,
        "contract": "contracts/CloudX.sol:CloudX",
        "label": "maxRentalTime",
        "offset": 0,
        "slot": "16",
        "type": "t_uint256"
      },
      {
        "astId": 3809,
        "contract": "contracts/CloudX.sol:CloudX",
        "label": "limits",
        "offset": 0,
        "slot": "17",
        "type": "t_mapping(t_uint8,t_struct(Resource)3791_storage)"
      },
      {
        "astId": 3814,
        "contract": "contracts/CloudX.sol:CloudX",
        "label": "usage",
        "offset": 0,
        "slot": "18",
        "type": "t_mapping(t_uint8,t_struct(Resource)3791_storage)"
      },
      {
        "astId": 3818,
        "contract": "contracts/CloudX.sol:CloudX",
        "label": "serverConfigs",
        "offset": 0,
        "slot": "19",
        "type": "t_mapping(t_bytes32,t_uint8)"
      },
      {
        "astId": 3823,
        "contract": "contracts/CloudX.sol:CloudX",
        "label": "_userInfo",
        "offset": 0,
        "slot": "20",
        "type": "t_mapping(t_uint256,t_struct(UserInfo)3786_storage)"
      },
      {
        "astId": 3828,
        "contract": "contracts/CloudX.sol:CloudX",
        "label": "templateInfo",
        "offset": 0,
        "slot": "21",
        "type": "t_mapping(t_bytes32,t_struct(TemplateInfo)3775_storage)"
      }
    ],
    "types": {
      "t_address": {
        "encoding": "inplace",
        "label": "address",
        "numberOfBytes": "20"
      },
      "t_array(t_uint256)dyn_storage": {
        "base": "t_uint256",
        "encoding": "dynamic_array",
        "label": "uint256[]",
        "numberOfBytes": "32"
      },
      "t_bool": {
        "encoding": "inplace",
        "label": "bool",
        "numberOfBytes": "1"
      },
      "t_bytes32": {
        "encoding": "inplace",
        "label": "bytes32",
        "numberOfBytes": "32"
      },
      "t_mapping(t_address,t_bool)": {
        "encoding": "mapping",
        "key": "t_address",
        "label": "mapping(address => bool)",
        "numberOfBytes": "32",
        "value": "t_bool"
      },
      "t_mapping(t_address,t_mapping(t_address,t_bool))": {
        "encoding": "mapping",
        "key": "t_address",
        "label": "mapping(address => mapping(address => bool))",
        "numberOfBytes": "32",
        "value": "t_mapping(t_address,t_bool)"
      },
      "t_mapping(t_address,t_mapping(t_uint256,t_uint256))": {
        "encoding": "mapping",
        "key": "t_address",
        "label": "mapping(address => mapping(uint256 => uint256))",
        "numberOfBytes": "32",
        "value": "t_mapping(t_uint256,t_uint256)"
      },
      "t_mapping(t_address,t_uint256)": {
        "encoding": "mapping",
        "key": "t_address",
        "label": "mapping(address => uint256)",
        "numberOfBytes": "32",
        "value": "t_uint256"
      },
      "t_mapping(t_bytes32,t_struct(TemplateInfo)3775_storage)": {
        "encoding": "mapping",
        "key": "t_bytes32",
        "label": "mapping(bytes32 => struct CloudX.TemplateInfo)",
        "numberOfBytes": "32",
        "value": "t_struct(TemplateInfo)3775_storage"
      },
      "t_mapping(t_bytes32,t_uint8)": {
        "encoding": "mapping",
        "key": "t_bytes32",
        "label": "mapping(bytes32 => uint8)",
        "numberOfBytes": "32",
        "value": "t_uint8"
      },
      "t_mapping(t_uint256,t_address)": {
        "encoding": "mapping",
        "key": "t_uint256",
        "label": "mapping(uint256 => address)",
        "numberOfBytes": "32",
        "value": "t_address"
      },
      "t_mapping(t_uint256,t_string_storage)": {
        "encoding": "mapping",
        "key": "t_uint256",
        "label": "mapping(uint256 => string)",
        "numberOfBytes": "32",
        "value": "t_string_storage"
      },
      "t_mapping(t_uint256,t_struct(UserInfo)3786_storage)": {
        "encoding": "mapping",
        "key": "t_uint256",
        "label": "mapping(uint256 => struct CloudX.UserInfo)",
        "numberOfBytes": "32",
        "value": "t_struct(UserInfo)3786_storage"
      },
      "t_mapping(t_uint256,t_uint256)": {
        "encoding": "mapping",
        "key": "t_uint256",
        "label": "mapping(uint256 => uint256)",
        "numberOfBytes": "32",
        "value": "t_uint256"
      },
      "t_mapping(t_uint8,t_struct(Resource)3791_storage)": {
        "encoding": "mapping",
        "key": "t_uint8",
        "label": "mapping(uint8 => struct CloudX.Resource)",
        "numberOfBytes": "32",
        "value": "t_struct(Resource)3791_storage"
      },
      "t_string_storage": {
        "encoding": "bytes",
        "label": "string",
        "numberOfBytes": "32"
      },
      "t_struct(Resource)3791_storage": {
        "encoding": "inplace",
        "label": "struct CloudX.Resource",
        "members": [
          {
            "astId": 3788,
            "contract": "contracts/CloudX.sol:CloudX",
            "label": "g",
            "offset": 0,
            "slot": "0",
            "type": "t_uint32"
          },
          {
            "astId": 3790,
            "contract": "contracts/CloudX.sol:CloudX",
            "label": "t",
            "offset": 4,
            "slot": "0",
            "type": "t_uint32"
          }
        ],
        "numberOfBytes": "32"
      },
      "t_struct(TemplateInfo)3775_storage": {
        "encoding": "inplace",
        "label": "struct CloudX.TemplateInfo",
        "members": [
          {
            "astId": 3772,
            "contract": "contracts/CloudX.sol:CloudX",
            "label": "serverId",
            "offset": 0,
            "slot": "0",
            "type": "t_bytes32"
          },
          {
            "astId": 3774,
            "contract": "contracts/CloudX.sol:CloudX",
            "label": "pricePerHour",
            "offset": 0,
            "slot": "1",
            "type": "t_uint256"
          }
        ],
        "numberOfBytes": "64"
      },
      "t_struct(UserInfo)3786_storage": {
        "encoding": "inplace",
        "label": "struct CloudX.UserInfo",
        "members": [
          {
            "astId": 3777,
            "contract": "contracts/CloudX.sol:CloudX",
            "label": "user",
            "offset": 0,
            "slot": "0",
            "type": "t_address"
          },
          {
            "astId": 3779,
            "contract": "contracts/CloudX.sol:CloudX",
            "label": "expires",
            "offset": 20,
            "slot": "0",
            "type": "t_uint64"
          },
          {
            "astId": 3781,
            "contract": "contracts/CloudX.sol:CloudX",
            "label": "templateId",
            "offset": 0,
            "slot": "1",
            "type": "t_bytes32"
          },
          {
            "astId": 3783,
            "contract": "contracts/CloudX.sol:CloudX",
            "label": "region",
            "offset": 0,
            "slot": "2",
            "type": "t_uint8"
          },
          {
            "astId": 3785,
            "contract": "contracts/CloudX.sol:CloudX",
            "label": "payment",
            "offset": 0,
            "slot": "3",
            "type": "t_uint256"
          }
        ],
        "numberOfBytes": "128"
      },
      "t_uint256": {
        "encoding": "inplace",
        "label": "uint256",
        "numberOfBytes": "32"
      },
      "t_uint32": {
        "encoding": "inplace",
        "label": "uint32",
        "numberOfBytes": "4"
      },
      "t_uint64": {
        "encoding": "inplace",
        "label": "uint64",
        "numberOfBytes": "8"
      },
      "t_uint8": {
        "encoding": "inplace",
        "label": "uint8",
        "numberOfBytes": "1"
      }
    }
  }
}